:020000040800F2
:10000000D814002015E4000811E4000811E40008E9
:1000100011E4000811E4000811E4000800000000E9
:1000200000000000000000000000000011E40008D3
:1000300011E400080000000011E40008A11201080A
:1000400011E4000811E4000811E4000811E40008BC
:1000500011E4000811E4000811E4000811E40008AC
:1000600011E4000811E4000811E4000811E400089C
:1000700011E4000811E4000811E4000811E400088C
:1000800011E4000811E4000811E4000811E400087C
:1000900011E4000811E4000811E4000811E400086C
:1000A00011E4000811E4000811E4000811E400085C
:1000B000FDE3000811E4000811E4000811E4000861
:1000C00011E4000811E4000811E4000811E400083C
:1000D00011E4000811E4000811E4000811E400082C
:1000E00011E4000811E4000811E4000811E400081C
:1000F00011E4000811E4000811E4000811E400080C
:1001000011E4000811E4000811E4000811E40008FB
:1001100011E4000811E4000811E40008451E01087C
:1001200011E4000811E4000899D2000811E4000865
:1001300011E4000811E4000811E4000811E40008CB
:1001400011E4000811E4000811E40008192701086F
:1001500011E4000811E4000811E4000811E40008AB
:1001600011E4000811E4000811E4000811E400089B
:1001700011E4000811E4000811E4000811E400088B
:0801800011E4000811E400087D
:10C0000081F0004102E000BF83F0004330B54FEA09
:10C0100041044FEA430594EA050F08BF90EA020F76
:10C020001FBF54EA000C55EA020C7FEA645C7FEA09
:10C03000655C00F0E2804FEA5454D4EB5555B8BF2C
:10C040006D420CDD2C4480EA020281EA030382EA9D
:10C05000000083EA010180EA020281EA0303362D2F
:10C0600088BF30BD11F0004F4FEA01314FF4801C02
:10C070004CEA113102D0404261EB410113F0004F14
:10C080004FEA03334CEA133302D0524263EB4303CB
:10C0900094EA050F00F0A780A4F10104D5F1200E69
:10C0A0000DDB02FA0EFC22FA05F2801841F10001C4
:10C0B00003FA0EF2801843FA05F359410EE0A5F198
:10C0C00020050EF1200E012A03FA0EFC28BF4CF0C9
:10C0D000020C43FA05F3C01851EBE37101F000457F
:10C0E00007D54FF0000EDCF1000C7EEB00006EEB8C
:10C0F0000101B1F5801F1BD3B1F5001F0CD3490816
:10C100005FEA30004FEA3C0C04F101044FEA44526C
:10C1100012F5800F80F09A80BCF1004F08BF5FEAF3
:10C12000500C50F1000041EB045141EA050130BDD3
:10C130005FEA4C0C404141EB010111F4801FA4F176
:10C140000104E9D191F0000F04BF01460020B1FACB
:10C1500081F308BF2033A3F10B03B3F120020CDA03
:10C160000C3208DD02F1140CC2F10C0201FA0CF0E1
:10C1700021FA02F10CE002F11402D8BFC2F1200C46
:10C1800001FA02F120FA0CFCDCBF41EA0C019040FC
:10C19000E41AA2BF01EB0451294330BD6FEA040445
:10C1A0001F3C1CDA0C340EDC04F11404C4F1200230
:10C1B00020FA04F001FA02F340EA030021FA04F342
:10C1C00045EA030130BDC4F10C04C4F1200220FA99
:10C1D00002F001FA04F340EA0300294630BD21FAD7
:10C1E00004F0294630BD94F0000F83F4801306BF9D
:10C1F00081F480110134013D4EE77FEA645C18BF91
:10C200007FEA655C29D094EA050F08BF90EA020F27
:10C2100005D054EA000C04BF1946104630BD91EA1F
:10C22000030F1EBF0021002030BD5FEA545C05D122
:10C230004000494128BF41F0004130BD14F5800461
:10C240003CBF01F5801130BD01F0004545F0FE41D5
:10C2500041F470014FF0000030BD7FEA645C1ABF0A
:10C26000194610467FEA655C1CBF0B46024650EA41
:10C27000013406BF52EA033591EA030F41F400216D
:10C2800030BD00BF90F0000F04BF0021704730B5F3
:10C290004FF4806404F132044FF000054FF00001C8
:10C2A00050E700BF90F0000F04BF0021704730B589
:10C2B0004FF4806404F1320410F0004548BF40425E
:10C2C0004FF000013EE700BF42004FEAE2014FEAB3
:10C2D00031014FEA02701FBF12F07F4393F07F4F8E
:10C2E00081F06051704792F0000F14BF93F07F4FC0
:10C2F000704730B54FF4607401F0004521F0004103
:10C3000020E700BF50EA010208BF704730B54FF088
:10C3100000050AE050EA010208BF704730B511F08D
:10C32000004502D5404261EB41014FF4806404F1C5
:10C3300032045FEA915C3FF4DCAE4FF003025FEA47
:10C34000DC0C18BF03325FEADC0C18BF033202EBCF
:10C35000DC02C2F1200300FA03FC20FA02F001FA29
:10C3600003FE40EA0E0021FA02F11444C1E600BFC8
:10C3700070B54FF0FF0C4CF4E06C1CEA11541DBF7B
:10C380001CEA135594EA0C0F95EA0C0F00F0DEF846
:10C390002C4481EA030621EA4C5123EA4C5350EA2B
:10C3A000013518BF52EA033541F4801143F480137C
:10C3B00038D0A0FB02CE4FF00005E1FB02E506F00D
:10C3C0000042E0FB03E54FF00006E1FB03569CF062
:10C3D000000F18BF4EF0010EA4F1FF04B6F5007F68
:10C3E00064F5407404D25FEA4E0E6D4146EB0606DA
:10C3F00042EAC62141EA55514FEAC52040EA5E5063
:10C400004FEACE2EB4F1FD0C88BFBCF5E06F1ED80C
:10C41000BEF1004F08BF5FEA500E50F1000041EB43
:10C42000045170BD06F0004646EA010140EA0200F0
:10C4300081EA0301B4EB5C04C2BFD4EB0C0541EA12
:10C44000045170BD41F480114FF0000E013C00F327
:10C45000AB8014F1360FDEBF002001F0004170BD4B
:10C46000C4F10004203C35DA0C341BDC04F1140464
:10C47000C4F1200500FA05F320FA04F001FA05F2F0
:10C4800040EA020001F0004221F0004110EBD370BD
:10C4900021FA04F642EB06015EEA430E08BF20EAE9
:10C4A000D37070BDC4F10C04C4F1200500FA04F38C
:10C4B00020FA05F001FA04F240EA020001F000411E
:10C4C00010EBD37041F100015EEA430E08BF20EA91
:10C4D000D37070BDC4F1200500FA05F24EEA020ED9
:10C4E00020FA04F301FA05F243EA020321FA04F008
:10C4F00001F0004121FA04F220EA020000EBD370BF
:10C500005EEA430E08BF20EAD37070BD94F0000FBE
:10C510000FD101F00046400041EB010111F4801FF2
:10C5200008BF013CF7D041EA060195F0000F18BFA3
:10C53000704703F00046520043EB030313F4801FDF
:10C5400008BF013DF7D043EA0603704794EA0C0F99
:10C550000CEA135518BF95EA0C0F0CD050EA4106AF
:10C5600018BF52EA4306D1D181EA030101F000412C
:10C570004FF0000070BD50EA410606BF1046194654
:10C5800052EA430619D094EA0C0F02D150EA013660
:10C5900013D195EA0C0F05D152EA03361CBF1046A1
:10C5A00019460AD181EA030101F0004141F0FE4140
:10C5B00041F470014FF0000070BD41F0FE4141F4C4
:10C5C000780170BD70B54FF0FF0C4CF4E06C1CEAC4
:10C5D00011541DBF1CEA135594EA0C0F95EA0C0F79
:10C5E00000F0A7F8A4EB050481EA030E52EA033534
:10C5F0004FEA013100F088804FEA03334FF0805555
:10C6000045EA131343EA12634FEA022245EA111581
:10C6100045EA10654FEA00260EF000419D4208BF32
:10C62000964244F1FD0404F5407402D25B084FEADF
:10C630003202B61A65EB03055B084FEA32024FF48B
:10C6400080104FF4002CB6EB020E75EB030E22BFE8
:10C65000B61A754640EA0C005B084FEA3202B6EBA8
:10C66000020E75EB030E22BFB61A754640EA5C0057
:10C670005B084FEA3202B6EB020E75EB030E22BFE7
:10C68000B61A754640EA9C005B084FEA3202B6EBE8
:10C69000020E75EB030E22BFB61A754640EADC00A7
:10C6A00055EA060E18D04FEA051545EA16754FEA09
:10C6B00006164FEAC30343EA52734FEAC2025FEA27
:10C6C0001C1CC0D111F4801F0BD141EA00014FF0B6
:10C6D00000004FF0004CB6E711F4801F04BF014387
:10C6E0000020B4F1FD0C88BFBCF5E06F3FF6AFAEA3
:10C6F000B5EB030C04BFB6EB020C5FEA500C50F133
:10C70000000041EB045170BD0EF0004E4EEA1131B5
:10C7100014EB5C04C2BFD4EB0C0541EA045170BDBC
:10C7200041F480114FF0000E013C90E645EA060E00
:10C730008DE60CEA135594EA0C0F08BF95EA0C0F2E
:10C740003FF43BAF94EA0C0F0AD150EA01347FF476
:10C7500034AF95EA0C0F7FF425AF104619462CE74D
:10C7600095EA0C0F06D152EA03353FF4FDAE1046B0
:10C77000194622E750EA410618BF52EA43067FF401
:10C78000C5AE50EA41047FF40DAF52EA43057FF491
:10C79000EBAE12E74FF0FF3C06E000BF4FF0010C9C
:10C7A00002E000BF4FF0010C4DF804CD4FEA410C00
:10C7B0007FEA6C5C4FEA430C18BF7FEA6C5C1BD0CD
:10C7C00001B050EA410C0CBF52EA430C91EA030F4E
:10C7D00002BF90EA020F0020704710F1000F91EAAB
:10C7E000030F58BF994208BF90422CBFD8176FEA79
:10C7F000E37040F0010070474FEA410C7FEA6C5C47
:10C8000002D150EA013C07D14FEA430C7FEA6C5C4D
:10C81000D6D152EA033CD3D05DF8040B704700BF79
:10C820008446104662468C461946634600E000BFC7
:10C8300001B5FFF7B7FF002848BF10F1000F01BD99
:10C840004DF808EDFFF7F4FF0CBF012000205DF864
:10C8500008FB00BF4DF808EDFFF7EAFF34BF0120E9
:10C8600000205DF808FB00BF4DF808EDFFF7E0FF82
:10C8700094BF012000205DF808FB00BF4DF808EDD3
:10C88000FFF7CEFF94BF012000205DF808FB00BF3A
:10C890004DF808EDFFF7C4FF34BF012000205DF81C
:10C8A00008FB00BF4FEA410212F5001215D211D564
:10C8B0006FF47873B3EB625212D94FEAC12343F09D
:10C8C000004343EA505311F0004F23FA02F018BF1F
:10C8D000404270474FF00000704750EA013005D1E8
:10C8E00011F0004008BF6FF0004070474FF00000AB
:10C8F000704700BF4A0011D212F5001211D20DD5B7
:10C900006FF47873B3EB62520ED44FEAC12343F055
:10C91000004343EA505323FA02F070474FF00000FF
:10C92000704750EA013002D14FF0FF3070474FF0AE
:10C930000000704710B441F2DC43C2F200035A7A9F
:10C940005B7C9A4220D841F2DC41C2F20001897A34
:10C95000994219D941F2DC41C2F20001C97B51B1BF
:10C9600041F2DC41C2F200019C1A00FA04F04C8A48
:10C97000204348822FE041F2DC42C2F20002518A99
:10C9800040EA4100508226E041F2DC42C2F200025D
:10C99000D17A8B421FD341F2DC42C2F20002127BF9
:10C9A0009A4218D941F2DC42C2F20002D27B52B163
:10C9B00041F2DC42C2F200025C1A00FA04F0948AEE
:10C9C0002043908207E041F2DC42C2F20002918AE9
:10C9D00040EA4100908203F1010341F2DC42C2F2DD
:10C9E0000002537410BC704700B583B04FF01000C4
:10C9F0004FF0010104F04CFB4FF4006300934FF043
:10CA000000008DF804008DF805008DF806008DF803
:10CA100007004FF48050C4F20200694605F086FA20
:10CA200003B000BD41F2DC43C2F20003997D39B38B
:10CA300041F2DC42C2F20002D37D072B0BD141F25E
:10CA4000DC41C2F200010A8B22F020034FEA0342CC
:10CA50004FEA12430B8341F2DC43C2F20003D97D5B
:10CA600001701A8B4280598B81801A7F82714FF03E
:10CA7000000058831883187798754FF001007047AD
:10CA80004FF00000704700BF38B54FF48050C4F23B
:10CA900002004FF4006105F0F9FA41F2DC43C2F202
:10CAA0000003997D002940F0E58241F2DC42C2F2A8
:10CAB0000002537FC3BB40B941F2DC43C2F2000322
:10CAC000997F01F101019977D4E241F2DC41C2F290
:10CAD00000018A7FB2B141F2DC43C2F200034FF0A1
:10CAE00001015977D9774FF0000283F820201046D2
:10CAF0009A825A824FF0FF025A7483F8211083F809
:10CB00002200B7E241F2DC40C2F20000838C4FF613
:10CB1000FF718B4200F0AE8203F1010341F2DC426F
:10CB2000C2F200029384A5E241F2DC41C2F20001AC
:10CB3000CA7F002A00F0B480A0B141F2DC41C2F209
:10CB4000000191F8213003F10103D8B281F82100EE
:10CB5000E92840F203824FF000024A778A7781F891
:10CB60002120FBE141F2DC43C2F20003987FA0F1F7
:10CB70000B01CAB2052A04D9A0F11603D9B20A29B9
:10CB800035D841F2DC42C2F2000292F82120A2F133
:10CB90000B03D9B2052904D9A2F11603D9B20A2987
:10CBA00025D841F2DC43C2F2000383F82620A0F12D
:10CBB0001100C1B20F2904D9A2F11102D0B20F287D
:10CBC0000CD841F2DC41C2F200014FF0000081F8C4
:10CBD00027004FF0400381F8223010E041F2DC439F
:10CBE000C2F200034FF0010283F8272007E041F270
:10CBF000DC40C2F200004FF00002427711E041F247
:10CC0000DC42C2F20002517F59B141F2DC44C2F26F
:10CC1000000445F21055C0F601050FCD0FC4286879
:10CC2000207041F2DC43C2F200034FF000025A745C
:10CC3000197C11F0010F26D041F2DC40C2F2000055
:10CC40000378172B1FD0092B1DD041F2DC40C2F214
:10CC50000000827890F821309A4209D2B3EB420F5B
:10CC600006DC81F00201C1F34000FFF763FE0AE039
:10CC700041F2DC40C2F2000090F827201AB9C1F35B
:10CC80004000FFF757FE41F2DC43C2F200034FF0D1
:10CC9000010098774FF0000283F82120DA775DE1F8
:10CCA00041F2DC43C2F2000393F82010002900F0A7
:10CCB0004181002800F0E48141F2DC42C2F200022E
:10CCC000507B517C88422DD141F2DC43C2F20003FB
:10CCD0009A7B012A26D141F2DC41C2F200010A7C92
:10CCE00012F0010F0BD141F2DC40C2F20000837F51
:10CCF000417999420BD8B44A9079984207D341F2CE
:10CD0000DC40C2F200004FF00002827326E141F2E3
:10CD1000DC43C2F200034FF000015977997783F8A2
:10CD200021101BE141F2DC43C2F2000393F8212001
:10CD300002F10102D2B283F821201B7C13F0010F13
:10CD400019D041F2DC43C2F200031B79B2EB430F6E
:10CD500011DBA0F1020399420DDB41F2DC43C2F288
:10CD600000039B7B3BB941F2DC43C2F200034FF06E
:10CD70000101997384E1E92A40F2F08000F1FF306B
:10CD800081420DD141F2DC42C2F20002937B3BB9F9
:10CD900001F1010141F2DC42C2F200025174DDE016
:10CDA00041F2DC41C2F200014FF000004877887781
:10CDB00081F82100D2E041F2DC40C2F20000817F24
:10CDC00082788A4217D203F0020202F0FF04D2F105
:10CDD000010038BF0020FFF7ADFD003418BF01246B
:10CDE00004F00100FFF7A6FD41F2DC43C2F20003AC
:10CDF00083F827402FE041F2DC43C2F20003587869
:10CE000088421FD841F2DC43C2F20003187993F83C
:10CE1000261088420DD2B1EB400F0ADC6A4B93F822
:10CE20002700D0F1010138BF0021C8B283F82710D4
:10CE300005E041F2DC42C2F2000292F82700FFF75F
:10CE400079FD08E041F2DC41C2F200014FF000023E
:10CE50004A7781F8212041F2DC40C2F2000090F8CC
:10CE6000211080F826104FF0000280F8202059E0B1
:10CE700041F2DC42C2F20002907F5178814220D818
:10CE800041F2DC43C2F200039A78824219D341F2A4
:10CE9000DC43C2F2000393F82110DA788A4210D8FA
:10CEA00041F2DC43C2F200031A798A4209D34FF0FF
:10CEB0000100FFF73FFD444B4FF0000283F82020B4
:10CEC00030E041F2DC41C2F200014B79834220D8CC
:10CED00041F2DC42C2F200029179814219D341F25F
:10CEE000DC40C2F2000090F82120C379934210D8B0
:10CEF00041F2DC41C2F20001087A904209D34FF0BE
:10CF00000000FFF717FD30494FF0000081F82000C6
:10CF100008E041F2DC43C2F200034FF000025A770E
:10CF200083F8212041F2DC43C2F200034FF00100FC
:10CF3000987713E040B941F2DC43C2F20003997FD5
:10CF400001F10101997709E041F2DC40C2F20000F1
:10CF50004FF0010280F8202080F8212041F2DC43CC
:10CF6000C2F20003587F002800F0848041F2DC41C7
:10CF7000C2F200014A7B4B7C9A427BD141F2DC40F9
:10CF8000C2F20000817B002974D140F20004C2F299
:10CF90000004208841F2DC42C2F20002948AA042DE
:10CFA00014D141F2DC43C2F20003998CB1F5966FC3
:10CFB0000CD241F2DC41C2F2000191F8283003F1B9
:10CFC000010381F8283009E0DC14002041F2DC4341
:10CFD000C2F200034FF0000283F8282041F2DC4344
:10CFE000C2F200034FF001029A751A78DA75598A75
:10CFF0001983072A07D141F2DC43C2F2000393F8F8
:10D00000222014439C8241F2DC43C2F200039A8A3C
:10D010005A839B7D1BB3904214D140F20000C2F2B0
:10D02000000043888B420DD141F2DC40C2F2000087
:10D03000808C40F6C903984204D8164B187F40F004
:10D040000100187740F20003C2F2000359801A80F1
:10D0500041F2DC41C2F200014FF000028A8441F249
:10D06000DC40C2F200004FF00003437783828377F5
:10D0700080F8213041F2DC40C2F20000807D38BDF2
:10D0800041F2DC40C2F20000037C13F0010F7FF498
:10D0900092AEEDE6DC1400202DE9F0478CB041F2B1
:10D0A0000853C2F2000303F104021A6043F2F8606D
:10D0B000C2F2000000F58B61C0F854144FF0000577
:10D0C00041F20856C2F200064FF6FF7743F2F863CA
:10D0D000C2F2000306F104042F5303F58B62AF5232
:10D0E00005F1020506F10400475303F58B614F5328
:10D0F00005F10205B5F5195FECD14FF002004FF0D4
:10D10000010103F0C5FF4FF6FF750A954FF00104CA
:10D110008DF82C408DF82D404FF000068DF82E60D4
:10D120008DF82F404FF48060C4F202000AA904F089
:10D13000FDFE4FF48057C4F2020738464FF0090154
:10D14000224604F0A9FF38464FF00B01224604F0B6
:10D15000A3FF2046214603F0D1FF07A806F072FE88
:10D16000B246ADF81C604FF0D0030893ADF81E60D6
:10D170003546C4F20105284607A906F00DFE02A8AF
:10D1800006F06AFF4FF06002ADF80820ADF80A40E3
:10D19000284602A906F014FF284602A906F07CFEE4
:10D1A000284602A906F0BEFE2846314606F064FF76
:10D1B00028464FF0140106F05BFF28464FF08C0123
:10D1C00006F058FF28464FF00801224606F056FFA9
:10D1D00028463146224606F051FF28464FF004010A
:10D1E000224606F04BFF2846214606F045FE4FF446
:10D1F0008000214603F04CFF46F2A049C4F2020928
:10D2000040F20407C2F200074846394605F038F9F3
:10D2100041F20850C2F200000168796446F25848B1
:10D22000C4F20208404607F13C0105F029F946F234
:10D230004046C4F20206304607F1780105F020F9B5
:10D2400030464FF01001224605F056F94FF03A03F0
:10D250008DF804304FF004028DF805208DF806A0FB
:10D260008DF807400DEB020006F0C0FA4846214653
:10D2700005F032F94046214605F02EF930462146A8
:10D2800005F02AF928464FF46061224606F01CFF9B
:10D290000CB0BDE8F08700BF08B546F24040C4F2CC
:10D2A00002004FF40041C1F2200105F047F9A0B19E
:10D2B00046F24040C4F202004FF40041C1F22001A6
:10D2C00005F06EF946F2F813C2F200034FF00002C7
:10D2D0001A604FF0010003F0A5FF08BD38B54FF00C
:10D2E0000404204603F09EFF3128FAD94FF00000D5
:10D2F00003F098FF46F2F813C2F200034FF0010268
:10D300001A6046F2A045C4F2020528464FF40041D7
:10D31000C2F2200105F044F946F25840C4F202007E
:10D320004FF40041C1F6000105F03AF94FF000005A
:10D33000C4F201004FF460614FF0000206F0C4FE39
:10D3400028464FF0000105F0C7F846F2A044C4F2A9
:10D350000204204605F0CCF80028FAD146F25840E5
:10D36000C4F202004FF0000105F0B6F846F258454D
:10D37000C4F20205284605F0BBF80028FAD146F2AF
:10D380004040C4F202004FF0000105F0A5F846F25B
:10D390004044C4F20204204605F0AAF80028FAD15D
:10D3A0004FF4C840C4F202004FF00005056045602C
:10D3B00043F2F861C2F20001D1F8542445F6E803C3
:10D3C000C2F20003C3F8A82841F20854C2F20004D4
:10D3D0002068C1F85404226046F2A040C4F2020062
:10D3E0004FF0010105F078F846F25840C4F202000F
:10D3F0004FF0010105F070F846F24040C4F202001F
:10D400004FF0010105F068F82C46C4F201042046F3
:10D41000294606F031FDA16B616220464FF4606140
:10D420004FF0010206F050FE20464FF0010106F0D9
:10D4300023FD38BD70B44FEA012404F47F044FEAA1
:10D44000112303F47F421443C9B20C434AF2A105ED
:10D45000CAF2A005A5FB00364FEAD6124FF0CC0366
:10D4600003FB1203A3F1440043280DD84FF2F1014E
:10D47000CFF2F001A1FB03054FEA951606EB06106B
:10D48000A3EB8003C3F187034FF0010606FA02F60F
:10D49000B5B203EB430143F2F862C2F20002D2F8E4
:10D4A000540400EB011303F102034FF018014FF491
:10D4B00000026FEA0600224233F8026C14BF0640F5
:10D4C0002E4323F8026C4FEA520201F1FF3103F1BF
:10D4D0000203224202D007E070BC704733F8026CAE
:10D4E0002E4323F8026C04E033F8026C064023F864
:10D4F000026C4FEA520203F102030139DBD1EBE780
:10D5000070B44FEA022404F47F044FEA122303F4B8
:10D510007F452C43D2B214434FF0010606FA00F0C7
:10D5200085B201EB410141F20853C2F200031A68CF
:10D5300002EB011303F102034FF018014FF4000254
:10D540006FEA0000224233F8026C14BF06402E43FB
:10D5500023F8026C4FEA520201F1FF3103F102039A
:10D56000224202D007E070BC704733F8026C2E43B1
:10D5700023F8026C04E033F8026C064023F8026CD6
:10D580004FEA520203F102030139DBD1EBE700BF9E
:10D5900070B582B004464FF0000301934FF00300D2
:10D5A00005F090F8E3681A6901924FF45465C0F2EF
:10D5B00003054FF003060BE0304605F083F8E368FF
:10D5C0001969019105F1FF35019A002A2DDA02E06F
:10D5D00001980028F0DA019840F001010191019AC8
:10D5E0001A61E368186901904FF45463C0F20303B1
:10D5F00009E0E2681069019003F1FF33019911F02D
:10D60000010F0CD103E0019911F0010FF1D14FF09E
:10D61000030005F057F84FF0000002B070BDE2685B
:10D6200010690190013BEED1F1E7304605F04AF870
:10D63000E36819690191013DCAD1ECE710B4C478DF
:10D640000CBB03F1030300EB8200D0F8D0009B1069
:10D6500019D003F1FF3202F0010451F8042B0260EB
:10D660004FF0010201F10401934210D10BE051F897
:10D67000044C046051F8044B046002F1020201F111
:10D6800004019342F3D14FF0000010BC7047002C0E
:10D69000EDD051F8044C046002F1010201F10401E3
:10D6A0009342E4D1EFE700BF70B402F10302D0F877
:10D6B000D04095101CD00A4605F1FF3303F001005D
:10D6C000236842F8043B4FF0010302F104029D423B
:10D6D00011D10BE0266842F8046C266842F8046B0E
:10D6E00003F1020302F104029D42F3D101EB850133
:10D6F000084670BC70470028ECD0206842F8040C43
:10D7000003F1010302F104029D42E3D1EEE700BF01
:10D71000F0B44FF00003C3704FF0010282704FF07D
:10D7200040048480012911D14FF00104C4724FF0EC
:10D73000080101704FF0040646704FF4A073C380D7
:10D740004FF0020202724FF0A04413E081B94FF093
:10D750000001C1724FF00C0606704FF006034370D3
:10D760004FF4A062C2804FF00004C4F2040401E050
:10D770004FF00004C46004F50061016146782EB3E7
:10D7800004F51062034606F1FF3505F001058261DC
:10D7900004F5306141654FF0010104F5126203F1B7
:10D7A00004038E427ED811E09A6102F500755D6532
:10D7B00002F12002DA6102F500759D6501F10201B6
:10D7C00002F1200203F108038E42EDD804F58066D1
:10D7D000466104F58863C0F8CC300678002E40D04E
:10D7E000354604F5A0610746024606F1FF3303F013
:10D7F000010CC0F890104FF0010304F5A46102F190
:10D8000004029E4240D80DE0C2F8901001F12001C0
:10D81000C2F8941003F1020301F1200102F10802A1
:10D820009D42F1D8EEB104F5805204EB063606F5C0
:10D830008055B31AC3F30036C7F8D02004F5005161
:10D8400007F10402A94214D10BE0C2F8D01001F58F
:10D850008053C2F8D43003F5805102F10802A94286
:10D86000F3D104F56064C0F80C414FF00000F0BC47
:10D870007047002EE9D0C2F8D01001F5805102F1B6
:10D880000402A942E1D1ECE7BCF1000FBCD0C2F820
:10D89000901003F1010301F1200102F104029E4204
:10D8A000B2D8BFE7002D3FF47FAF9A6102F5007553
:10D8B0005D6501F1010102F1200203F104038E42D2
:10D8C0003FF672AF82E700BF38B504464FF000055F
:10D8D000037A012B28D1C068836B6FF31043617A00
:10D8E00009B143F480138363E268D0686FF3861054
:10D8F0006FF3965040F010016FF3C3016FF3C7113F
:10D900006FF351416FF3D341D1602046FFF740FEE2
:10D91000E378012B53D14FF0050262F3440545F043
:10D920002005E06885603EE0C068C26842F04001C2
:10D93000C1602046FFF72CFE237A032B14BF4FF45F
:10D9400050214FF47021607A08B141F48011E268EF
:10D9500091634FF0140004F0D7FEE368D868217A91
:10D96000032908BF40F48030D860227A032A1AD1F4
:10D97000E3681D6B4FF0010060F39B656FF3D755B3
:10D9800045F080554FF02D0161F316451D634FF0B2
:10D99000C80004F0B9FE45F40005E26815634FF0D5
:10D9A000C80004F0B1FEE178012908D1E3689A6863
:10D9B0004FF0050060F3440242F0200199604FF0FF
:10D9C000000038BDC3689A6842F0010098604FF0CB
:10D9D00000007047C3689A6822F0010098604FF019
:10D9E0000000704700B583B04FF000030193019A27
:10D9F00042F020030193019A61F38A120192C168F7
:10DA0000019B0B61C268116901914FF45463C0F22C
:10DA1000030309E0C1680A69019203F1FF33019928
:10DA200011F0200F0CD103E0019A12F0200FF1D178
:10DA30004FF0030004F046FE4FF0000003B000BDBD
:10DA4000C26811690191013BEED1F1E700B583B0E5
:10DA50004FF000030193019941F010020192C36855
:10DA600001991961C268136901934FF45463C0F2BC
:10DA7000030309E0C2681169019103F1FF33019AC0
:10DA800012F0100F0CD103E0019911F0100FF1D139
:10DA90004FF0030004F016FE4FF0000003B000BD8D
:10DAA000C1680A690192013BEED1F1E708B5C2688D
:10DAB000D3686FF35D736FF39E73012902D143F056
:10DAC000005302E009B943F08043D3604FF03200C5
:10DAD00004F01AFE4FF0000008BD00BFC36858698B
:10DAE00000F00100704700BF08B5FFF7F7FF10F125
:10DAF000FF3018BF012008BDC3685A6998691040FB
:10DB0000704700BF03691A6861F301021A60704729
:10DB1000C3684FF000029A61C1684FF0FF334B6158
:10DB2000C2685360C1684B614FF40063C8F20003E0
:10DB3000C2689361C178002914BF4FF400634FF4A9
:10DB4000016343F4432242F0080141F4401343F0DF
:10DB5000804242F00402C068816921EA020141EA80
:10DB6000020383614FF00000704700BFF8B5044620
:10DB70004FF000052E46D0F80C311D600069026898
:10DB800065F3CC220260E17A01292BD120464FF0C7
:10DB90000301FFF7B7FFE0684FF0800343624FF0E7
:10DBA000200262F31F4563F30F05E1688D624FF0B9
:10DBB000A00060F30F0663F31F46E368C3F8046137
:10DBC0004FF4907161F30F0662F31F46E268C2F8EA
:10DBD00008614FF4A07060F30F066FF31F46E3680F
:10DBE000C3F80C6120464FF01001FFF7FBFE204602
:10DBF000FFF72CFF21694FF0000008612269506196
:10DC000023694FF0FF3199612269D0616078002863
:10DC10003CD0234622464FF000010F464FF0FF064E
:10DC200090690568C5F3076505F08005EDB2002D24
:10DC300014BF4FF090450025056090690761906919
:10DC4000866001F10101607802F104028842E7D8A0
:10DC5000E0B14FF0000216464FF0FF05596D08681D
:10DC6000C0F3076000F08000C0B2002814BF4FF07E
:10DC7000904000200860596D0E61586D856002F17A
:10DC8000010203F1040361789142E7D823691A691C
:10DC900042F480701861E17801290BD14FF0030341
:10DCA0004FF0400262F38A0343F4803062F359403C
:10DCB000216908632046FFF72BFF4FF00000F8BDF5
:10DCC00003699868C0F34101022906D0032907D0EF
:10DCD000012905D04FF0030070474FF00100704755
:10DCE0004FF00200704700BF0369996883691A68A2
:10DCF000C1F34101022912BF6FF30A02032161F34C
:10DD00000A021A600069436843F4807242604FF06F
:10DD10000000704730B44FF000024B78012B0AD15D
:10DD20000B7800EB8304A4694FF0010505FA03F3B7
:10DD300063F30F0209E00B7800EB8304646D4FF08E
:10DD4000010505FA03F363F31F422368C3F30725B4
:10DD500005F08005EDB26DB98D6865F30A03CD78E5
:10DD600065F39343C98861F3995343F0805343F4B7
:10DD7000004121600069C3691A43C2614FF000008D
:10DD800030BC704730B44FF000031A464C78012C79
:10DD90000AD1097800EB8104A4694FF0010505FA66
:10DDA00001F161F30F0209E0097800EB81056C6D68
:10DDB0004FF0010505FA01F161F31F426FF3CF3314
:10DDC00023600069C36923EA0202C2614FF00000C8
:10DDD00030BC704770B50B464A78012A56D10C7892
:10DDE00000EB840291690C680A69596931B96FF3D3
:10DDF00012024FF0010161F3DC420EE061F3120206
:10DE00009D68491901F1FF31B1FBF5F565F3DC427D
:10DE1000D978012908BF61F35E72197800EB81019E
:10DE200089690A61C278012A06D11A7800EB820159
:10DE300089691A694A610DE0D97801290DD05A69BA
:10DE4000A2B10269556B19784FF0010606FA01F18B
:10DE500029435163D978012908D10269916811F4E5
:10DE6000807F0CBF44F0005444F0805444F00444DC
:10DE70001A7800EB82018A691460D978012944D1AB
:10DE8000D9681A789B8AFFF7D9FB3EE0097800EB46
:10DE90008104656D29682A695D693DB99C6864F3F0
:10DEA00012024FF0010464F3DC420FE09E68AC19EB
:10DEB00004F1FF34B4FBF6F44FEA84544FEA94546F
:10DEC00064F3DC4206FB04F464F312021C7800EBFA
:10DED0008404646D2261C278012A05D11C7800EBAC
:10DEE0008402546D1A696261DA78012A06D15A797E
:10DEF00012B141F0005101E041F0805141F0044283
:10DF00001B7800EB8300416D0A604FF0000070BD8C
:10DF100030B482B04B78012B4BD183691C681D69EA
:10DF200000954A6972B99DF800506FF306058DF8A7
:10DF300000509DF802204FF0010565F3C4028DF8F2
:10DF4000022018E08D68AA4207D94D619DF8002093
:10DF500065F306028DF8002005E09DF8005062F39D
:10DF600006058DF800509DF802204FF0010565F37D
:10DF7000C4028DF80220009A1A61C278012A05D1E4
:10DF80000D7800EB850295690A696A6144F00442E4
:10DF90001A60C378002B4BD14A69002A48D0036924
:10DFA000586B0A784FF0010101FA02F202435A63FA
:10DFB0003EE00A7800EB8204636D1A681C690094E5
:10DFC0004B697BB98C689DF8003064F306038DF8CB
:10DFD00000309DF802304FF0010464F3C4038DF863
:10DFE00002300FE08C684C619DF8003064F306034A
:10DFF0008DF800309DF802304FF0010464F3C40343
:10E000008DF802300B7800EB8304646D009B236174
:10E01000C378012B05D10C7800EB84035C6D0B6990
:10E02000636142F00442097800EB8100436D1A609D
:10E030004FF0000002B030BC704700BF4B78012B9E
:10E0400010D10B7800EB830082691368C3F307617A
:10E0500001F08000C1B209B143F0804343F40010E5
:10E06000106007E0097800EB8100436D1A6842F404
:10E07000001119604FF00000704700BF4B78012B72
:10E080000B7800EB83000CBF8269426D13686FF35D
:10E090005553C978A1F10201C8B2012898BF43F0D5
:10E0A000805313604FF00000704700BF03699A6906
:10E0B000D86910404FEA1040704700BF00EB810163
:10E0C0004B6D996802695069084070470369986907
:10E0D000D969084080B2704782B04FF000030093C6
:10E0E0004FF0C0018DF803104FF000034FF0010214
:10E0F00062F3C4038DF802304FF018018DF8001060
:10E10000436D009A1A61C178012908D1436D00F569
:10E11000B9625A61406D02684FF08021016002B01F
:10E12000704700BF00B583B04FF0010146F20023F5
:10E13000C2F20003197040F2B800C2F20000009071
:10E1400046F20C20C2F2000040F20C62C2F2000261
:10E1500040F61C03C2F2000300F0B8FB03B000BDA0
:10E1600046F20023C2F200031878704710B40B7E09
:10E17000C3B90A68442A18D14B682A2B18D14FF02A
:10E18000000342F278140A69D25CC25403F101031D
:10E190000A69D25CC25403F10103A342F3D14FF0E8
:10E1A000010007E04FF0000004E04FF0000001E044
:10E1B0004FF0000010BC70472DE9F00301EB820422
:10E1C00051F822301A6911780F465A691568A94228
:10E1D00037D21D68442D37D15B682A2B18BF002029
:10E1E0003DD10DE023681E69B75C59690E68B742DE
:10E1F0002DD21E68442E2DD15B682A2B56D02CE0E0
:10E200004FF0000940F628351379012B2AD12DE073
:10E210001379012B00D119B1926852F8281000E04F
:10E22000494601704FEA112343704FEA1142827050
:10E2300000F103000CF10102AA42D3D14FF001001A
:10E240000DE04FF000000AE04FF0000007E04FF053
:10E25000000004E04FF0000001E04FF00000BDE8D6
:10E26000F0037047916851F8277002E00029F9D156
:10E270004F4607704FEA172242704FEA17438370E8
:10E2800000F103004FF0000C0CF1010C2768396914
:10E2900011F80C1088467A6913689942D7D23B6806
:10E2A000442BD7D17B682A2BB2D0D6E70B79012B30
:10E2B00003D0896851F8277002E0002FF9D14F464A
:10E2C00007704FEA172343704FEA1741817000F13E
:10E2D000030002F1010C23681A6912F80C10884639
:10E2E0005A691768B942B2D21F68442FB2D15B682D
:10E2F0002A2B8DD0B1E700BF46F20023C2F2000303
:10E300004FF001021A70704746F20023C2F2000378
:10E310004FF001021A70704746F20023C2F2000368
:10E320004FF002021A70704746F20023C2F2000357
:10E330004FF001021A70704746F20023C2F2000348
:10E340004FF001021A70704746F20023C2F2000338
:10E350004FF001021A70704746F20023C2F2000328
:10E360004FF001021A70704708B5FEF75BFB08BD5D
:10E3700000B585B04FF00100014602F0ADFE4FF050
:10E380000703029303F52D70ADF804004FF0000170
:10E39000ADF80C10ADF806104FF0804001A905F063
:10E3A000FBFC4FF080404FF001010A4605F07AFE79
:10E3B0004FF080404FF0010105F05EFD05B000BD5B
:10E3C00000B583B04FF01C038DF804304FF001000E
:10E3D0008DF807004FF00F018DF805108DF806102D
:10E3E00001A805F003FA03B000BD00BF08B5FFF7B0
:10E3F000BFFFFFF7E5FFFEF7F7FA08BD08B54FF0DE
:10E4000080404FF0010105F059FEFEF73DFB08BDCD
:10E41000FEE700BF38B5224B224A9A4224D202F1CD
:10E4200004012148441A24F003054FF0000340F290
:10E430000002C2F200024EF26401C0F60D0105F1C5
:10E440000404C5F380005D589D5003F10403A3420A
:10E450001DD109E05858985003F1040358589850BA
:10E4600003F10403A342F5D1104811494FF0000213
:10E470008842B8BF40F8042BFFF6FAAFDFF834004B
:10E48000016841F47001016002F022FA38BD0028F1
:10E49000E0D05858985003F10403A342DAD1E3E7DF
:10E4A000DC0C002000000020DF0C0020DC14002029
:10E4B000584F012088ED00E000EB800040F2781317
:10E4C000C2F2000303EB800148680A894283704767
:10E4D00000EB800040F27813C2F2000303EB8001EE
:10E4E00048680A890283704710B582B040F27814F8
:10E4F000C2F20004E0684FF0010102F0C9FD238977
:10E5000000934FF001008DF804004FF000028DF8E9
:10E5100006208DF807004FF002018DF805106068A5
:10E52000694603F003FD247C24B14FF00000FFF79F
:10E53000CFFF03E04FF00000FFF7BEFF40F278147A
:10E54000C2F20004206A4FF0010102F0A1FDA38B8A
:10E5500000934FF001008DF804004FF000028DF899
:10E5600006208DF807004FF002018DF80510A06914
:10E57000694603F0DBFC94F8244024B14FF001001D
:10E58000FFF7A6FF03E04FF00100FFF795FF40F211
:10E590007814C2F20004606B4FF0010102F078FDC4
:10E5A000238E00934FF001008DF804004FF000021D
:10E5B0008DF806208DF807004FF002018DF8051048
:10E5C000E06A694603F0B2FC94F8384024B14FF099
:10E5D0000200FFF77DFF03E04FF00200FFF76CFF42
:10E5E00040F27814C2F20004A06C4FF0010102F076
:10E5F0004FFDB4F8443000934FF001008DF8040053
:10E600004FF000028DF806208DF807004FF0020150
:10E610008DF80510206C694603F088FC94F84C30A6
:10E6200023B94FF00300FFF747FF03E04FF003006B
:10E63000FFF74EFF02B010BD00EB800040F27813F0
:10E64000C2F2000303EB8001486842690B8983EA48
:10E6500002014161704700BF10B5044630B106F0B9
:10E6600033FF90FBF4F303FB140010BD4FF00000E8
:10E6700010BD00BF10B50446884203DA081AFFF740
:10E68000EBFF2418204610BD10B50446D0F8E43541
:10E69000186980474FF0030184F812114FF0000011
:10E6A00010BD00BF08B54FF0040380F81231D0F858
:10E6B000E405C16888474FF0000008BD08B5D0F8F0
:10E6C000E035D96901B188474FF0000008BD00BFAF
:10E6D00008B5D0F8E035196A88474FF0000008BD4A
:10E6E00008B5D0F8E035596A88474FF0000008BDFA
:10E6F00008B5D0F8E435586980474FF0000008BDF0
:10E7000010B50446D0F8E43598698047D4F8E01590
:10E710004A6820464FF0000190474FF0000010BDBE
:10E7200010B504464FF000014FF040020B4605F0D3
:10E73000F7F820464FF080014FF040024FF0000301
:10E7400005F0EEF84FF0010384F81231D4F8E40537
:10E750004168A07888474FF0000010BD10B582B026
:10E760000446694603F0E0FF9DF8001001F01F0326
:10E77000012B08D013B1022B0FD109E020466946C6
:10E7800004F0E0F80EE02046694604F0BBF809E02A
:10E790002046694604F008F804E0204601F08001B4
:10E7A00005F044F94FF0000002B010BD10B504466A
:10E7B0000A4600293FD190F81101022845D1D4F82A
:10E7C0003421D4F820319A4211D9D21AC4F8342114
:10E7D000E178012904D1D4F82401C318C4F8243104
:10E7E0002046D4F8241192B205F084F92DE0D4F833
:10E7F0003801B0FBF3F103FB110171B983420CD86E
:10E80000D4F83C21904208D220460A4605F072F91D
:10E810004FF00002C4F83C2117E0D4F8E035D96885
:10E8200029B194F81201032801D1204688472046D7
:10E8300005F09EF909E0D0F8E0355B692BB190F85E
:10E840001211032901D1114698474FF0000010BD65
:10E8500010B504460A4661BB90F81101032832D175
:10E86000D4F88C23D4F878339A4214D9D21AC4F845
:10E870008C23E178012904D1D4F87C03C118C4F8B1
:10E880007C139A4228BF1A462046D4F87C1392B2D1
:10E8900005F050F917E0D4F8E0150B692BB194F8A6
:10E8A0001201032801D120469847204605F04EF971
:10E8B00009E0D0F8E0359B692BB190F812110329DB
:10E8C00001D1114698474FF0000010BDF8B504463D
:10E8D0000D4616461F4603F07FFEC4F8E075069B02
:10E8E000C4F8E435C4F8E8652046294604F0C4FFBE
:10E8F000D4F8E40501688847204603F0C9FEF8BD56
:10E9000010B50446D0F8E0351A689047D4F8E4050D
:10E91000816888474FF0000010BD00BF08B5D0F8EF
:10E92000E0355A6890474FF0000008BD70B400EB26
:10E9300080024BF25C63C2F2000353F8321051BB09
:10E9400046F60404C2F2000442F2781505FB0043C7
:10E9500000EB80064BF25C62C2F2000202EBC601E1
:10E960000D790C7A097B03F5055606F138061D7002
:10E970005C709970DD701C71597103F106039E4241
:10E98000F5D100EB80004BF25C63C2F200034FF064
:10E99000010243F8302070BC704700BF70B400EB38
:10E9A00080024BF25C63C2F2000353F8321079B973
:10E9B0004BF25C65C2F2000500EB80044FEAC4062E
:10E9C000AA194FF00003D3604FF001011161A95162
:10E9D00046F60405C2F2000542F2781404FB005327
:10E9E00000EB80064BF25C62C2F2000202EBC60151
:10E9F000CD684FF0000240F6283695420CBFFF2448
:10EA000000241C705C709C7002F1010295420CBFE6
:10EA1000FF240024DC701C715C7103F1060302F119
:10EA20000102B242E9D100EB80024BF25C63C2F218
:10EA3000000303EBC201CB6840F6273293420BDCA4
:10EA400000EB80004BF25C62C2F2000202EBC001FC
:10EA500003F10103CB600AE000EB80004FEAC00342
:10EA60004BF25C62C2F200024FF00001D15070BC68
:10EA7000704700BF10B400EB80024BF25C63C2F23F
:10EA8000000353F8321009BB46F60404C2F2000436
:10EA900042F2781202FB004303F5055404F13804F6
:10EAA0004FF000021A705A709A70DA701A715A7127
:10EAB00003F106039C42F5D100EB80004BF25C6150
:10EAC000C2F200014FF0010341F8303010BC704732
:10EAD00040F26023C2F200031868C0EB00214AF63E
:10EAE0003032C2F20002136891FBF3F0C1B2064B60
:10EAF00003F6283003F10102597003F1020351704B
:10EB00008342F7D1704700BF33AB00202DE9F003FB
:10EB10004BF25C63C2F20003186D48BB4BF25C61C0
:10EB2000C2F200014FF400624A654FF001040C6527
:10EB30001EE02A4663464FEA42020B4218BF42F0EB
:10EB400001024FEA43038342F5DDA24202D101F8FC
:10EB5000079004E09442D4BF2B464346CB5501F1C5
:10EB60000101B1422BD00028D8BF2A46EDDDE0E7F5
:10EB70004BF25C65C2F20005686D40F26026C2F29D
:10EB8000000637684FF42053C0F20B0303FB07F471
:10EB90004AF63031C2F200010A684FF000010D461A
:10EBA0004FF0010C94FBF2F94FEA29244AF634376E
:10EBB000C2F200074FF0FF0840F62836D3E7BDE861
:10EBC000F00370472DE9F0414BF25C63C2F20003A1
:10EBD000186D80B94FF0010040F62831FFF74AFD6B
:10EBE0004BF25C61C2F2000148654FF0FF028A659A
:10EBF0004FF001040C654BF25C65C2F20005AC6D90
:10EC0000002C1CDD40F6283101FB04F54BF25C665C
:10EC1000C2F20006776D95FBF7F303F1FF0040F2B7
:10EC20006022C2F20002116801FB00F54AF630369C
:10EC3000C2F20006376895FBF7F0C21A1AE040F6F8
:10EC4000283606FB04F74BF25C63C2F20003586DF2
:10EC500097FBF0F1C1F1FF0540F26022C2F2000221
:10EC6000166806FB05F74AF63033C2F2000318684F
:10EC700097FBF0F24BF25C63C2F200035D6D4FF064
:10EC8000000003464AF63436C2F200064FF0FF0792
:10EC9000804640F6283C90FBF5F1511802D503F868
:10ECA000068003E0FF29A8BF3946995503F1010307
:10ECB000001990FBF5F1511800D504E0FF29A8BF19
:10ECC0003946995501E003F8068003F10103001964
:10ECD0006345E0D1BDE8F0812DE9F04F83B00546F2
:10ECE00000EB80024BF25C63C2F2000353F8320087
:10ECF00070B94BF25C64C2F2000405EB85014FEA87
:10ED0000C102A3184FF0000058604FF00101A1505C
:10ED100005EB85044BF25C62C2F2000202EBC40315
:10ED20005C6804F101045C604FF008004FF00C01D6
:10ED3000FFF7A0FC844240DD05EB85064BF25C67E3
:10ED4000C2F2000707EBC6004FF00001416046F633
:10ED50000404C2F2000442F2781202FB054404F5F6
:10ED6000055505F1380501954FF0C80A4FF0FF0928
:10ED70004FF064084FF078070E4650464946FFF7BB
:10ED800079FC054640463946FFF774FC25706070F3
:10ED9000A67004F1030550464946FFF76BFC834615
:10EDA00040463946FFF766FC84F803B0207166716F
:10EDB00004F10604019BA342DFD103B0BDE8F08F4C
:10EDC00038B5034646F60400C2F2000042F278125B
:10EDD00002FB030003EB83014BF25C64C2F200040C
:10EDE00054F8312072B94BF25C65C2F200054FEA6B
:10EDF000C1042A194FF0000151609160D1614FF0B8
:10EE000001022A5103EB83044BF25C61C2F2000160
:10EE100001EBC402546851698C422CDB03EB830480
:10EE20004BF25C62C2F2000202EBC4044FF000013C
:10EE30006160A16801F10101A160226991421ADBC0
:10EE400003EB83044BF25C61C2F2000101EBC402EC
:10EE50004FF00104D4619169002903EB83044BF264
:10EE60005C62C2F2000202EBC401CEBF00248C68D7
:10EE700004F1FF348C6003EB83034BF25C64C2F259
:10EE8000000404EBC304E168A268FFF795F9606829
:10EE900000F10100606038BD38B500EB80024BF234
:10EEA0005C63C2F2000353F83210A1B94BF25C6507
:10EEB000C2F200054FEAC2042B1946F60402C2F260
:10EEC000000242F2781101FB00205968FFF74EF969
:10EED0004FF00100285138BDF8B5074600EB80021D
:10EEE0004BF25C63C2F2000353F8320070BB46F68B
:10EEF0000404C2F2000442F2781101FB07444FF40B
:10EF00008070FFF7A9FBC6B24FF48070FFF7A4FB37
:10EF1000C5B24FF48070FFF79FFBC2B204F50550F5
:10EF200000F1380026706570A270E670257162717C
:10EF300004F10604A042F5D107EB87074BF25C63AE
:10EF4000C2F200034FF0010143F83710F8BD00BFD3
:10EF50002DE9F8434AF6F423C2F20003186858B9C1
:10EF60004AF6F421C2F200014FF000024A608A60C2
:10EF7000CA604FF001050D604FF000074AF6F42516
:10EF8000C2F200054FF0030840F26029C2F2000906
:10EF900004F012FC0646002851D00388002B4AD00A
:10EFA0003C463019017A012904D0686840F62832BD
:10EFB000904208DDEF60AF606F60FEF78FF940466A
:10EFC000FFF73AFB32E0AB6853B909EB0102107965
:10EFD000EB6843EA0041E9604FF00102AA6025E0D6
:10EFE000012B09D149440A79E86840EA0223EB6021
:10EFF0004FF00201A96019E0022B17D149440979A9
:10F00000EA681143E960FEF715FAEF60AF606868DF
:10F0100000F1010040F62833984201DC686005E009
:10F020006F60FEF75BF94046FFF706FB04F1010451
:10F030003088A042B5DC304604F08AFEA8E7BDE87F
:10F04000F88300BF2DE9F84FFEF748F946F2941017
:10F05000C2F200000478C4F10102D5B240F260238C
:10F06000C2F2000383F80451196801F1010119602B
:10F070004678AEB34FF000044470A14219DC46F26A
:10F080009411C2F200018E784BF2D467C2F20007ED
:10F09000BE7040F26020C2F2000090F805214AF6EE
:10F0A0003033C2F200031A604BF25C66C2F2000613
:10F0B000346546F29417C2F20007F8784BF2D46137
:10F0C000C2F20001485505EB85054FEAC5034FF034
:10F0D00000024BF25C66C2F20006F2507A602BE04E
:10F0E00079B940F26026C2F200064FF0FF37376070
:10F0F00046F29410C2F20000426802F1010242603E
:10F100001AE04AF63037C2F200073868814213DB52
:10F110004BF2D462C2F20002535D135546F29411D1
:10F12000C2F200010D7040F26025C2F2000585F8C0
:10F1300004414FF0FF342C6046F29414C2F20004F4
:10F14000207846F60407C2F2000742F2781101FB6C
:10F15000007640F26025C2F200054BF2D463C2F2A1
:10F1600000031A5C05EB8204D4F80871B8472868DC
:10F17000002865DD40F26024C2F2000494F8040126
:10F1800046F60408C2F2000842F2781505FB008832
:10F190004BF2D467C2F20007395C04EB8102D2F86B
:10F1A00008319847B87804EB8004D4F83051A84768
:10F1B0004FF0000425464AF6343AC2F2000A40F203
:10F1C0006027C2F2000740F6283915F80A1001F14D
:10F1D0000103C1F5807208EB040E301918F804C061
:10F1E000315D02FB01F103FB0C11C1F3072179181A
:10F1F00091F804C09EF801B0417802FB01F103FBD5
:10F200000B11C1F30721791809794FEA012141EA6D
:10F210000C419EF802E0807802FB00F203FB0E2313
:10F22000C3F307203A18137928461943FEF702F969
:10F2300005F1010504F103044D45C6D1BDE8F88F81
:10F240004FF0000540F26024C2F2000440F6283876
:10F25000317863181A797778E0190179B37806F173
:10F2600003074FEA012040EA0241E21813792846D9
:10F270001943FEF7DFF805F101052846F178621819
:10F2800012793379E1180979737906F106064FEAA4
:10F29000012141EA0241E21813791943FEF7CAF845
:10F2A00005F101054545D3D1BDE8F88F46F2941329
:10F2B000C2F20003D870997040F26021C2F20001DE
:10F2C00081F805214FF001025A70704700000000DC
:10F2D00038B54AF6F423C2F200031868002843D177
:10F2E00040F26021C2F2000191F804514AF6F42480
:10F2F000C2F2000465604FF00002A2604DF29C0370
:10F30000C0F604031868FCF7BDFFE5A3D3E90023AA
:10F31000FDF72EF84FF000024FF00003FCF776FEE9
:10F32000FDF7C0FAE06005EB85014BF25C65C2F2C7
:10F33000000505EBC10343F2C862C0F60D025A6036
:10F3400040F2BC41C2F20001D9604FF030051D61AE
:10F3500058614FF001059D614FF0070029464FF0BD
:10F360006402FFF7A3FF256040F26020C2F20000B4
:10F3700090F83C31A3F15502D1B2012900F2568137
:10F3800040F26020C2F2000090F804214AF6F42115
:10F39000C2F200014A60562B0AD18B6803F10103C7
:10F3A000092B13DC4AF6F421C2F200018B600DE058
:10F3B000552B0BD14AF6F423C2F200039868431E82
:10F3C00004D44AF6F421C2F200018B604AF6F4201C
:10F3D000C2F200008368ABB902EB82004BF25C62C0
:10F3E000C2F2000202EBC00143F2C863C0F60D0393
:10F3F0004B604FF007004FF001014FF06402FFF740
:10F4000055FF38BD012B15D102EB82004BF25C6237
:10F41000C2F2000202EBC00145F22853C0F601031C
:10F420004B604FF007004FF001014FF06402FFF70F
:10F430003DFF38BD022B33D102EB82014BF25C64FD
:10F44000C2F2000404EBC10440F22860C2F20000E2
:10F45000E0604FF03302226143F6F473C0F6080314
:10F460001868FCF70FFF8EA3D3E90023FCF780FF99
:10F470004FF000024FF00003FCF7C8FDFDF712FA51
:10F480004AF6F421C2F20001C8604FF00002A26106
:10F4900060614FF009004FF00101FFF707FF38BD31
:10F4A000032B15D102EB82014BF25C60C2F200002B
:10F4B00000EBC10245F22853C0F6010353604FF040
:10F4C00007004FF001014FF06402FFF7EFFE38BD77
:10F4D000042B15D102EB82014BF25C60C2F20000FA
:10F4E00000EBC1034CF67412C0F602025A604FF0F2
:10F4F00007004FF001014FF06402FFF7D7FE38BD5F
:10F50000052B15D102EB82014BF25C60C2F20000C8
:10F5100000EBC10340F6DC72C0F607025A604FF000
:10F5200007004FF001014FF06402FFF7BFFE38BD46
:10F53000062B15D102EB82014BF25C60C2F2000097
:10F5400000EBC1034EF60832C0F602025A604FF0DB
:10F5500007004FF001014FF06402FFF7A7FE38BD2E
:10F56000072B15D102EB82014BF25C60C2F2000066
:10F5700000EBC1034EF64862C0F606025A604FF037
:10F5800007004FF001014FF06402FFF78FFE38BD16
:10F59000082B33D102EB82024BF25C64C2F200040E
:10F5A00004EBC20440F2F461C2F20001E1604FF0EA
:10F5B000230020614AF2EC43C0F60A031868FCF706
:10F5C00061FE37A3D3E90023FCF7D2FE4FF000021F
:10F5D0004FF00003FCF71AFDFDF764F94AF6F42238
:10F5E000C2F20002D0604FF00101A16160614FF0F2
:10F5F00009004FF06402FFF759FE38BD092B4ED1C8
:10F6000002EB82024BF25C61C2F2000101EBC2002C
:10F6100047F2BC63C0F6010343604FF007004FF0B0
:10F6200001014FF06402FFF741FE38BD40F2602057
:10F63000C2F2000090F83D21A2F11002D1B20129DE
:10F640002DD8102B0ED14AF6F423C2F20003D8684D
:10F6500000F101001E2813DC4AF6F421C2F2000179
:10F66000C8600DE0112B0BD14AF6F423C2F200035F
:10F67000D868411E04D44AF6F422C2F20002D160D6
:10F680004AF6F423C2F200035A6802EB82004BF2FE
:10F690005C61C2F2000101EBC002DB68536138BD5E
:10F6A000B81E85EB51B8AE3F38B54AF6F423C2F226
:10F6B0000003186860BB40F26021C2F2000191F8BB
:10F6C00004514AF6F424C2F2000465604FF00002CF
:10F6D000A2604FF00500E06005EB85034BF25C6132
:10F6E000C2F2000101EBC30240F2BC45C2F20005C8
:10F6F000D5604FF03003136150614FF00105956103
:10F700004FF0090029464FF06402FFF7CFFD256056
:10F7100040F26020C2F2000090F83C11A1F15502C5
:10F72000D3B2012B00F2CD8140F26024C2F200047A
:10F7300094F804414AF6F422C2F2000254605629B9
:10F740000AD1916801F10101082913DC4AF6F4207D
:10F75000C2F2000081600DE055290BD14AF6F42376
:10F76000C2F200039968481E04D44AF6F422C2F299
:10F77000000290604AF6F422C2F2000293684BBB8A
:10F7800004EB84024BF25C63C2F2000303EBC200A1
:10F7900040F2BC41C2F20001C1604FF03002026190
:10F7A0004DF29C03C0F604031868FCF76BFDE2A35E
:10F7B000D3E90023FCF7DCFD4FF000024FF000031B
:10F7C000FCF724FCFDF76EF84AF6F421C2F20001C2
:10F7D000C8605EE1012B29D104EB84024BF25C602E
:10F7E000C2F2000000EBC20140F2F463C2F2000377
:10F7F000CB604FF023020A614AF2EC40C0F60A00E7
:10F800000068FCF73FFDCCA3D3E90023FCF7B0FD73
:10F810004FF000024FF00003FCF7F8FBFDF742F851
:10F820004AF6F421C2F20001C86032E1022B29D16C
:10F8300004EB84004BF25C61C2F2000101EBC003F7
:10F8400040F28072C2F20002DA604FF00E001861DE
:10F8500043F2D031C0F60C010868FCF713FDB6A3E3
:10F86000D3E90023FCF784FD4FF000024FF00003C2
:10F87000FCF7CCFBFDF716F84AF6F423C2F20003BE
:10F88000D86006E1032B29D104EB84014BF25C62C2
:10F89000C2F2000202EBC10040F2C813C2F2000340
:10F8A000C3604FF01A0101614AF6D822C0F6030284
:10F8B0001068FCF7E7FCA0A3D3E90023FCF758FD90
:10F8C0004FF000024FF00003FCF7A0FBFCF7EAFF4B
:10F8D0004AF6F423C2F20003D860DAE0042B29D1FF
:10F8E00004EB84024BF25C60C2F2000000EBC20346
:10F8F00040F64801C2F20001D9604FF009021A61D6
:10F9000047F6F010C0F60D000068FCF7BBFC8AA3B8
:10F91000D3E90023FCF72CFD4FF000024FF0000369
:10F92000FCF774FBFCF7BEFF4AF6F423C2F20003B7
:10F93000D860AEE0052B29D104EB84004BF25C6368
:10F94000C2F2000303EBC00140F24012C2F2000217
:10F95000CA604FF00E00086140F69C43C0F60303F6
:10F960001868FCF78FFC74A3D3E90023FCF700FDB3
:10F970004FF000024FF00003FCF748FBFCF792FF4A
:10F980004AF6F421C2F20001C86082E0062B29D1B8
:10F9900004EB84004BF25C62C2F2000202EBC00195
:10F9A00040F2D403C2F20003CB604FF01B000861A9
:10F9B00049F65002C0F601021068FCF763FC5EA332
:10F9C000D3E90023FCF7D4FC4FF000024FF0000312
:10F9D000FCF71CFBFCF766FF4AF6F421C2F20001BB
:10F9E000C86056E0072B29D104EB84024BF25C611E
:10F9F000C2F2000101EBC20040F28C53C2F20003DC
:10FA0000C3604FF01202026143F27011C0F60701A9
:10FA10000868FCF737FC48A3D3E90023FCF7A8FCEF
:10FA20004FF000024FF00003FCF7F0FAFCF73AFF4A
:10FA30004AF6F423C2F20003D8602AE0082B28D14A
:10FA400004EB84014BF25C60C2F2000000EBC103E6
:10FA500040F22862C2F20002DA604FF0330119610D
:10FA600043F6F470C0F608000068FCF70BFC32A304
:10FA7000D3E90023FCF77CFC4FF000024FF00003B9
:10FA8000FCF7C4FAFCF70EFF4AF6F423C2F20003B7
:10FA9000D86004EB84044BF25C60C2F2000000EB1F
:10FAA000C4044FF00101A1614AF6F422C2F200023F
:10FAB000D36863614FF009004FF06402FFF7F6FB73
:10FAC00038BD40F26020C2F2000090F83D21A2F162
:10FAD0001002D3B2012B2DD810290ED14AF6F421F1
:10FAE000C2F20001C86800F101001E2813DC4AF6CA
:10FAF000F423C2F20003D8600DE011290BD14AF6BD
:10FB0000F421C2F20001C868431E04D44AF6F4226C
:10FB1000C2F20002D3604AF6F420C2F2000042684A
:10FB200002EB82034BF25C61C2F2000101EBC30203
:10FB3000C068506138BD00BFB81E85EB51B8AE3FFC
:10FB400030B58BB06C464DF27405C0F604050FCD90
:10FB50000FC40FCD0FC495E8030084E803004AF6F4
:10FB6000F423C2F20003186810BB40F26021C2F215
:10FB7000000191F804314AF6F424C2F200046360F3
:10FB80004FF00002A26003EB83004BF25C61C2F213
:10FB9000000101EBC003009A5A604FF007004FF0DC
:10FBA00001014FF06402FFF781FB4FF0010020607C
:10FBB00040F26021C2F2000191F83C31A3F15502FC
:10FBC000D0B2012840D840F26021C2F2000191F881
:10FBD00004214AF6F420C2F200004260562B0AD1FA
:10FBE000806800F10100092813D84AF6F423C2F214
:10FBF000000398600DE0552B0BD14AF6F423C2F2B6
:10FC000000039968481E04D44AF6F423C2F20003A4
:10FC1000986002EB82024BF25C61C2F2000101EBE0
:10FC2000C2004AF6F423C2F200039A680AA901EB63
:10FC3000820353F8282C42604FF007004FF0010177
:10FC40004FF06402FFF732FB0BB030BD08B54AF647
:10FC5000F423C2F20003186860B94FF001014AF6BC
:10FC6000F422C2F2000211604FF002004FF0640271
:10FC7000FFF71CFB08BD00BF08B54AF6F423C2F22B
:10FC80000003186858B94FF001014AF6F422C2F295
:10FC90000002116008464FF06402FFF707FB08BD41
:10FCA00008B54AF6F423C2F20003186860B94FF0B1
:10FCB00001014AF6F422C2F2000211604FF0050081
:10FCC0004FF06402FFF7F2FA08BD00BF08B54AF62C
:10FCD000F423C2F20003186860B94FF001014AF63C
:10FCE000F422C2F2000211604FF008004FF06402EB
:10FCF000FFF7DCFA08BD00BF38B54AF6F423C2F2BC
:10FD00000003186828BB4AF6F424C2F200044FF03E
:10FD1000010525604FF0F000FEF79EFC00F1780031
:10FD20006060A560E5604FF00400FEF795FC0546B5
:10FD30004FF00300FEF790FC04464FF014004FF024
:10FD40006401FEF797FCC2B2E8B2E1B2FFF7AEFA87
:10FD500038BD46F29411C2F200014B684AF6F42213
:10FD6000C2F200025068984220DA4AF6F421C2F248
:10FD70000001CB68012B19D14FF00400FEF76CFC99
:10FD800004464AF6F425C2F20005A8604FF00300CD
:10FD9000FEF762FC05464FF014004FF06401FEF7D9
:10FDA00069FCC2B2E0B2E9B2FFF780FA40F2602229
:10FDB000C2F2000292F83D0110280FD14AF6F42356
:10FDC000C2F200035868B0F5FA7F61DC00F10A0066
:10FDD0004AF6F421C2F20001486038BD11280ED164
:10FDE0004AF6F420C2F200004168092950DDA1F171
:10FDF0000A014AF6F422C2F20002516038BD40F214
:10FE00006021C2F2000191F83C31352B07D14AF64E
:10FE1000F421C2F200014FF00103CB6038BD362B54
:10FE200007D14AF6F420C2F200004FF00002C2608F
:10FE300038BD212B15D14AF6F422C2F20002906897
:10FE4000012825DD00F1FF314AF6F423C2F2000358
:10FE50009960C8B24FF001014FF06402FFF726FA33
:10FE600038BD202B14D14AF6F422C2F20002906869
:10FE700002280DDC00F101014AF6F423C2F200036E
:10FE80009960C8B24FF001014FF06402FFF70EFA1B
:10FE900038BD00BF000000002DE9F0412DED028BC0
:10FEA000B0EE408AF0EE608A4FF0000622A5D5E958
:10FEB000004540F26027C2F200073046FCF7F2F935
:10FEC00022462B46FCF77EFB41EC100BB0EE481AA5
:10FED000F0EE681A04F004F907F1040851EC100B75
:10FEE00022462B46FCF744FAFCF704FD08F806000E
:10FEF00006F101063046FCF7D5F922462B46FCF701
:10FF000061FB41EC100BB0EE481AF0EE681A04F0F9
:10FF1000E7F851EC100B22462B46FCF729FAFCF7C8
:10FF2000E9FC08F8060006F10106B6F5807FC4D1A9
:10FF3000BDEC028BBDE8F0810000000000E06F40E6
:10FF400010B44AF6AB23C2F6AA2383FB00434FEA60
:10FF5000E074C4EB232303EB4304B0EB442048BF1D
:10FF600000F5C060C3B24FEA202004281FD8DFE8A4
:10FF700000F00308261018004FF000044FF0FF00B7
:10FF800022E06FEA0304E0B24FF000044FF0FF03F9
:10FF90001AE06FEA0303DBB24FF0FF044FF00000FA
:10FFA00012E018464FF0FF044FF000030CE06FEA38
:10FFB0000303DCB24FF000034FF0FF0004E01C46E7
:10FFC0004FF0FF034FF0000001F10101C0F1FF000D
:10FFD00001FB00F0C3F1FF0301FB03F3C4F1FF04D5
:10FFE00001FB04F102F1010281F47F41C1F3072119
:10FFF00002FB01F183F47F43C3F3072302FB03F306
:020000040801F1
:1000000003F47F4343EA212180F47F40C0F30723B8
:1000100002FB03F202F47F4041EA002010BC70476B
:100020002DE9F04F83B0019000EB80024BF25C634E
:10003000C2F2000353F83200002866D14FF00200EC
:10004000FEF70AFB00F1010000EB40014FEA4120FE
:10005000019C04EB84054BF25C66C2F2000606EBE1
:10006000C5077860FEF7F8FA46F21702C1F2F262AD
:1000700082FB00234FEAE070C0EB2320FCF712F96B
:100080004FF000024FF07F53FCF772F94FF000027F
:100090004FF00003C4F21003FBF7B8FFFCF702FCBB
:1000A000B8604FF00200FEF7D7FA60B9019901EB92
:1000B00081044BF25C65C2F2000505EBC40677686B
:1000C000C7F1000272604FF00200FEF7C5FA60B996
:1000D000019B03EB83004BF25C61C2F2000101EB78
:1000E000C004A568C5F10006A6604BF25C67C2F2C9
:1000F0000007019A02EB82034FEAC30439194FF05B
:100100000000C8604FF001053D5146F60406C2F2FA
:10011000000642F27817019A07FB026402EB8201A3
:100120004BF25C60C2F2000000EBC105D5F80CA0F8
:10013000D5F8049004F5055B0BF1380B4FF0000582
:1001400046F21707C1F2F2674FF0FF0887FB05166A
:100150004FEAE572C2EB26230AEB03004146424612
:10016000FFF7EEFE4FEA204121704FEA202666702D
:10017000A07004F103064D4487FB05204FEAE572A9
:10018000C2EB20230AEB030041464246FFF7D8FEAC
:100190004FEA2041E1704FEA20222271607104F1A0
:1001A00006044D44A345D1D1019800EB80014BF2E8
:1001B0005C63C2F2000303EBC100C16882688B1864
:1001C000C36003B0BDE8F08F38B54AF6F423C2F23D
:1001D00000031868E8B94AF6F423C2F2000340F2BB
:1001E0006022C2F2000292F8041159604FF000043C
:1001F0009C60DC601C614FF0020058619C614FF014
:100200006402DA614FF0FF0119624FF001041C60D3
:1002100001E04FF0000440F26023C2F2000393F8C3
:100220003C016B2807D14AF6F420C2F200004FF0DF
:1002300002024261C6E06C2807D14AF6F421C2F2FC
:1002400000014FF003034B61BCE06E2807D14AF672
:10025000F420C2F200004FF004024261B2E06D28C7
:1002600007D14AF6F421C2F200014FF007034B61B7
:10027000A8E00F2807D14AF6F420C2F200004FF0A0
:10028000080242619EE040F26022C2F2000292F84F
:100290003D31A3F11001CAB2012A61D8102B1AD145
:1002A0004AF6F422C2F20002536952F82300FA28F7
:1002B00008DC00F105004AF6F422C2F2000242F81E
:1002C000230022E04AF6F422C2F200024FF0FF01BE
:1002D00042F8231019E04AF6F420C2F20000426905
:1002E00050F82230042B08DDA3F105034AF6F42070
:1002F000C2F2000040F8223007E04AF6F420C2F2D1
:1003000000004FF0000140F822104AF6F423C2F238
:1003100000035869A0F10700012854D940F2602178
:10032000C2F2000191F804214AF6F423C2F200035C
:100330005A6002EB82004BF25C61C2F2000101EBF9
:10034000C00298685060D96891601B69D3604FF013
:1003500004004FF000014FF00A02FEF7A7FF31E062
:10036000562816D14AF6F425C2F20005AB6903F10E
:1003700064034AF6AB21C2F6AA2181FB03024FEACD
:10038000E370C0EB222404EB4401A3EB4123AB61F7
:1003900019E0552816D14AF6F425C2F20005AC69D9
:1003A000A4F164044AF6AB20C2F6AA2080FB040341
:1003B0004FEAE471C1EB232202EB4200A4EB40249C
:1003C000AC6100E05CB340F26025C2F2000595F834
:1003D00004514AF6F424C2F200046560A06994F85E
:1003E0002010227FFFF7ACFD05EB85014BF25C632B
:1003F000C2F2000303EBC105C0F307426A60C0F319
:100400000721A960C0B2E860A260E16020614FF0FE
:1004100004004FF000014FF01402FEF747FF38BD13
:1004200046F2B703CBF20B6383FB00210B184FEAB4
:10043000E072C2EB63214FF4347303FB1100002818
:10044000B8BFC018B0F5B47F0BDCB428C8BFC0F586
:10045000B47040F26021C2F200010B1893F8402101
:1004600010E0B0F5077FD4BFA0F5B471C0F53471CA
:1004700040F26022C2F20002511891F84031C3F1FB
:100480000000C2B250B270472DE9F04F83B0019026
:1004900000EB80024BF25C63C2F2000353F83200BF
:1004A000002851D14FF4C060FEF7D6F8019901EB56
:1004B00081044BF25C65C2F2000505EBC406706076
:1004C00047F6B537B760034646F21702C1F2F2624B
:1004D00082FB03014FEAE370C0EB2120FEF7BCF87A
:1004E000FBF7E0FE62A3D3E90023FBF741FF4FF0E7
:1004F00000024FF00003C4F21003FBF787FDFCF786
:10050000D1F9F0604FF00200FEF7A6F860B9019C47
:1005100004EB84054BF25C66C2F2000606EBC507ED
:10052000FB68C3F10002FA604BF25C64C2F20004A3
:10053000019901EB81004FEAC00566194FF00007F1
:1005400037614FF00103635146F60402C2F2000224
:1005500042F27814019904FB012401EB81004BF273
:100560005C65C2F2000505EBC006D6F81080B768DE
:1005700004F5055B0BF1380B4FF0000546F217064A
:10058000C1F2F2664BF25C6AC2F2000A0AEBC00AE0
:100590004FF0FF0986FB05214FEAE572C2EB2120EF
:1005A0004044FFF73DFF00280BDBC0F17F014FEA1D
:1005B0004102DAF8040002F0FE014A46FFF7C0FCEF
:1005C0000AE000F17F004FEA4003DAF804004946F0
:1005D00003F0FE02FFF7B4FC4FEA204323704FEA1A
:1005E00020216170A07004F10304ED1986FB053031
:1005F0004FEAE572C2EB202308EB0300FFF710FF80
:1006000000281CDA0FE0019800EB80024BF25C63DB
:10061000C2F2000303EBC2000169C2688B180361D8
:1006200003B0BDE8F08F00F17F004FEA4002DAF836
:100630000400494602F0FE02FFF782FC0AE0C0F126
:100640007F014FEA4103DAF8040003F0FE014A4655
:10065000FFF776FC4FEA204222704FEA20216170BA
:10066000A07004F10304ED19A34593D1CBE700BFBB
:10067000B81E85EB51B88E3F08B546F29413C2F20E
:100680000003187A002800F0218146F29411C2F28A
:1006900000014FF000020A72CB684FEA131045F6D2
:1006A0000631C0F2B051A1FB00024FF4347000FBE0
:1006B0001230FFF7B5FE00280DDA00F17F034FEA94
:1006C00043024FF0C8004FF0FF0102F0FE02FFF7B7
:1006D00037FC02460CE0C0F17F014FEA41034FF0C6
:1006E000C80003F0FE014FF0FF02FFF729FC0246AD
:1006F0004FF00F004FF00001FCF702FF46F294109C
:10070000C2F20000C36803F15A034FEA131145F621
:100710000632C0F2B052A2FB01014FF4347000FB6C
:100720001130FFF77DFE00280DDA00F17F034FEA5C
:1007300043024FF0C8004FF0FF0102F0FE02FFF746
:10074000FFFB02460CE0C0F17F014FEA41034FF08E
:10075000C80003F0FE014FF0FF02FFF7F1FB024675
:100760004FF00F004FF00101FCF7CAFE46F2941063
:10077000C2F20000C36803F1B4034FEA131145F657
:100780000632C0F2B052A2FB01014FF4347000FBFC
:100790001130FFF745FE00280DDA00F17F034FEA24
:1007A00043024FF0C8004FF0FF0102F0FE02FFF7D6
:1007B000C7FB02460CE0C0F17F014FEA41034FF056
:1007C000C80003F0FE014FF0FF02FFF7B9FB02463D
:1007D0004FF00F004FF00201FCF792FE46F294102A
:1007E000C2F20000C26802F587734FEA131145F6A2
:1007F0000630C0F2B050A0FB01024FF4347101FB8F
:100800001230FFF70DFE00280DDA00F17F034FEAEA
:1008100043024FF0C8004FF0FF0102F0FE02FFF765
:100820008FFB02460CE0C0F17F004FEA40014FF021
:10083000C80001F0FE014FF0FF02FFF781FB024606
:100840004FF00F004FF00301FCF75AFE46F29413ED
:10085000C2F20003DA6802F5B4734FEA131045F6EA
:100860000631C0F2B051A1FB00024FF4347000FB1E
:100870001230FFF7D5FD00280DDBC0F17F014FEAF4
:1008800041034FF0C80003F0FE014FF0FF02FFF7F5
:1008900057FB02460CE000F17F034FEA43024FF0A2
:1008A000C8004FF0FF0102F0FE02FFF749FB0246CD
:1008B0004FF00F004FF00401FCF722FE46F29410B7
:1008C000C2F20000C26802F10202C26008BD00BFAD
:1008D0002DE9F04F2DED088B85B04BF2D463C2F2B9
:1008E000000340F26022C2F2000292F804014FF0CD
:1008F0000401195446F29414C2F2000425784FF012
:1009000008065E55FDF72CFC01F028FDFDF7ECFD17
:1009100001F078FA00F0F6FD012829D14FF000002F
:1009200001F010FA38BB00F04BFDFBF7BBFC4FF0B9
:1009300000024FF00003C3F6F073FBF79FFFE8B12E
:100940004FF0000000F03CFDFBF7ACFC4FF0000264
:100950004FF00003C4F21403FBF786FF88B14FF099
:10096000000000F02DFDFBF79DFC41EC180B0AE0A8
:100970009FEDB58B07E09FEDB48B04E09FEDB28B4C
:1009800001E09FEDB18BB0EE480AF0EE680AFFF788
:1009900083FA00F0D7FBFCF77FFBFDF727FDFDF79F
:1009A000C1FBFDF7DDFB07464FF007064FF480580B
:1009B000C4F202084FF40069A9A5D5E900459FEDEE
:1009C000A49B9FEDA5BB9FEDA0AB4046494601F01F
:1009D0005DFB012802D1FDF77BFD03E04FF0010034
:1009E000FDF76AFD02A8FDF7BFFC01281CD19DF8A8
:1009F0000C0040F26021C2F2000181F83D019DF837
:100A00000E3013F0010F06D140F26021C2F2000156
:100A100081F83C0112E04FF0FF0340F26022C2F285
:100A2000000282F83C3184E040F26023C2F200030D
:100A30004FF0FF0283F83C2183F83D2140F2602013
:100A4000C2F2000090F83C313BB94FF000064AF684
:100A5000F420C2F200000660D1E0012B09D14AF671
:100A6000F423C2F200034FF0000119604FF00106B9
:100A7000C5E0022B09D14AF6F426C2F200064FF077
:100A8000000232604FF00206B9E0032B09D14AF6AA
:100A9000F421C2F200014FF0000008604FF004069C
:100AA000ADE0042B09D14AF6F426C2F200064FF05D
:100AB000000333604FF00506A1E0052B09D14AF68B
:100AC000F420C2F200004FF0000202604FF0060670
:100AD00095E0062B09D14AF6F423C2F200034FF049
:100AE000000119604FF0070689E0072B09D14AF68B
:100AF000F420C2F200004FF0000606604FF0080636
:100B00007DE0082B09D14AF6F421C2F200014FF032
:100B100000020A604FF0090671E00C2B09D14AF679
:100B2000F426C2F200064FF0000333604FF00306D4
:100B300065E040F26022C2F2000292F83D115229B3
:100B400004D0712914D03C2959D1F7E051EC180B8D
:100B500022462B46FBF758FA41EC180B53EC192BA5
:100B6000FBF796FE10BBB0EE498AF0EE698A1DE0F5
:100B7000712B0FD03C2919D151EC180B22462B4672
:100B8000FBF744FA82468B4653EC1B2BFBF76CFEBB
:100B900028B90BE0B0EE4A8AF0EE6A8A06E04BEC28
:100BA00018AB03E0B0EE4A8AF0EE6A8A4FF000001C
:100BB00000F006FCFBF776FB53EC182BFBF740FE2E
:100BC000B8B946F2F81AC2F2000AB0EE480AF0EEDE
:100BD000680AFFF761F9DAF800000028F5D151EC56
:100BE000180BFBF75FFE81B24FF0000001F094F8A4
:100BF00005E0B0EE480AF0EE680AFFF74DF9FDF7A0
:100C0000AFFAB84230D0FDF7ABFA0746FDF7A8FAC5
:100C1000022809D1002E7DD04FF000064AF6F420BC
:100C2000C2F20000066075E0FDF79AFA02281BD0B8
:100C3000072E5BD04AF6F426C2F200064FF0000001
:100C400030604FF0070651E0000000000000004057
:100C5000000000000000F03F000000000000144011
:100C60009A9999999999B93F4FF00003009301938C
:100C70004FF0FF0019461A46FFF7FEFC40F26022D3
:100C8000C2F2000202EB8603D3F8F81188479EB146
:100C900046F29410C2F20000027C012A0CD146F206
:100CA0009413C2F200034FF000011974FEF7CAF961
:100CB0004FF00300FDF7C0FC4FF004004FF00001BF
:100CC00000F070FA00287FF480AEFDF7B5FC46F224
:100CD0009410C2F200004FF00102027402724FF051
:100CE00002004FF0100100F05DFA6EE64FF00003D5
:100CF000009301934FF0FF0019461A46FFF7BCFC22
:100D000040F26022C2F2000202EB8603D3F8F8112F
:100D10008847BDE74FF00003009301934FF0FF00B9
:100D200019461A46FFF7A8FC40F26022C2F2000200
:100D300002EB8603D3F8F8118847BDE7712B7FF4E7
:100D40001BAF2FE7AFF3008046F2B703CBF20B6384
:100D500083FB00210B184FEAE072C2EB63214FF4D2
:100D6000347303FB11000028B8BFC018B0F5B47F7E
:100D700014DCB42807DC40F26022C2F20002101A30
:100D800090F8F4311FE040F26022C2F20002101825
:100D900090F88C10C1F10003DBB214E0B0F5077FCE
:100DA0000ADC40F26022C2F20002101A90F85C13D2
:100DB000C1F10003DBB206E040F26022C2F20002A1
:100DC000111811F8DC3C58B2704700BF2DE9F04F04
:100DD00085B0039000EB80024BF25C63C2F200032B
:100DE00053F8320020BB4FF43470FDF735FC4BF262
:100DF0005C66C2F20006039901EB81054FEAC50764
:100E0000F41900F5347262604FF00500FDF724FC20
:100E100000F10100A0604FF0C800FDF71DFC00F1DB
:100E2000C800E0604FF0000323614FF00100F05173
:100E3000039E06EB86014BF25C65C2F2000505EBF2
:100E4000C104E768D4F81080D4F8049046F217067D
:100E5000C1F2F2664046FFF777FF00EB070B40F662
:100E600026354C4686FB04124FEAE473C3EB22207E
:100E70004044FFF769FF39188B4405F1FF354C44B6
:100E800086FB04204FEAE472C2EB202308EB030048
:100E9000FFF75AFF39188B444C44013DE2D146F626
:100EA0000406C2F2000642F27812039802FB0064C4
:100EB00004F5055303F1380301934FF000052E4666
:100EC00040F2602AC2F2000A46F21701C1F2F26152
:100ED00002914FF4985202FB06F0B0FBFBF34FEA8D
:100EE000232101EB410001F1010101EB4101DBB2E2
:100EF00003F10102C3F58073504490F820C25144BD
:100F000091F820E202FB0EFE03FB0CEC4FEA2C2EC4
:100F100084F800E090F821C291F821E202FB0EFE75
:100F200003FB0CEC4FEA2C2E84F801E090F822022F
:100F300091F8221202FB01F203FB00234FEA232067
:100F4000A07004F10304029981FB05124FEAE573D6
:100F5000C3EB22204044FFF7F7FE391876184D44C2
:100F6000019A9442B5D1039B03EB83004BF25C6181
:100F7000C2F2000101EBC0031A6998681318B3F5B7
:100F8000347F0ADA039901EB81004BF25C62C2F212
:100F9000000202EBC0010B610BE0039800EB800143
:100FA0004BF25C62C2F2000202EBC100A3F53473A3
:100FB000036105B0BDE8F08F10B44FF46053C4F284
:100FC0000203996801F00C02042A09D0082A0DD006
:100FD000002A38D14FF41053C0F2F403036037E015
:100FE0004FF49053C0F27A03036031E04FF4605144
:100FF000C4F202014C684A6802F03F0114F4800F09
:101000004FF46053C4F202035A68C2F3881319BF45
:101010004FF49054C0F27A044FF41054C0F2F40428
:10102000B4FBF1F404FB03F14FF46052C4F202028A
:101030005368C3F3014404F101044FEA4402B1FBD5
:10104000F2F1016004E04FF41054C0F2F4040460C3
:101050004FF46053C4F202039C68C4F3031240F2DD
:101060007C51C2F200018C5C026822FA04F24260F8
:101070009C68C4F382240C5D22FA04F484609B68AB
:10108000C3F34233C95C22FA01F2C26010BC70475C
:1010900039B14FF46051C4F202010B6B184308637D
:1010A00070474FF46053C4F202031A6B22EA000047
:1010B0001863704739B14FF46051C4F202014B6BB1
:1010C0001843486370474FF46053C4F202035A6BED
:1010D00022EA00005863704739B14FF46051C4F2FE
:1010E00002010B6C1843086470474FF46053C4F25C
:1010F00002031A6C22EA00001864704739B14FF4F9
:101100006051C4F202014B6C1843486470474FF4BD
:101110006053C4F202035A6C22EA0000586470471C
:1011200039B14FF46051C4F202010B6A18430862EE
:1011300070474FF46053C4F202031A6A22EA0000B7
:101140001862704710B584B046F2A813C2F20003CB
:101150004FF000041C605C609C60DC601C615C61A2
:101160009C616846FFF728FF4DF68360C4F21B3090
:10117000019AA0FB02134FEA934101F1FF304EF2B6
:101180001003CEF2000358604FF46D42CEF200021D
:101190004FF0F00182F823109C604FF007001860B8
:1011A00004B010BD38B946F2A811C2F200014FF0E8
:1011B00001024A607047012807D146F2A810C2F226
:1011C000000041604FF00100704702280BD14FF43E
:1011D0007A7202FB01F146F2A813C2F200035960D1
:1011E0004FF001007047032812D141F2C50291422D
:1011F00028BF114644F24023C0F20F0303FB01F065
:1012000046F2A811C2F2000148604FF00100704799
:1012100046F2A810C2F200004168081C18BF012065
:10122000704700BF28B946F2A813C2F20003586104
:10123000704701280AD146F2A811C2F200014FF00E
:1012400001024A614FF000008861704702280AD10C
:1012500046F2A813C2F200034FF47A7058614FF0BF
:1012600000009861704703280CD146F2A813C2F21F
:10127000000344F24021C0F20F0159614FF0000019
:1012800098617047042808D146F2A811C2F2000103
:1012900088694A69B0FBF2F070474FF00000704770
:1012A00046F2A813C2F20003186838B146F2A8113A
:1012B000C2F200010A6802F1FF330B6046F2A81087
:1012C000C2F20000416839B146F2A813C2F200032D
:1012D0005A6802F1FF30586046F2A811C2F20001CC
:1012E0008B683BB146F2A810C2F20000826802F19E
:1012F000FF31816046F2A813C2F20003D86838B10A
:1013000046F2A811C2F200010A6902F101020A6163
:1013100046F2A813C2F20003586938B146F2A81188
:10132000C2F200018A6902F101028A61704700BFBE
:1013300008B54FF008004FF0020100F047FF082801
:101340000FD14FF48040C0F600004FF0000100F0D4
:101350001DFF082805D14FF010004FF0020100F0EA
:1013600035FF08BD4FF48043C0F6000319888AB2E8
:101370004FF40043C0F6000319888BB280B10128F6
:1013800014D12BB94EF6EE60101A18BF0120704729
:101390007AB94EF6EE60834214BF002001207047F8
:1013A00052B1002B14BFAB20012070474FF000005A
:1013B00070474FF0AB0070474FF00000704700BF20
:1013C00010B5044609281FD84FF00000FFF7CAFFE8
:1013D000E8B1012824D06FF0010010BD118889B256
:1013E000A14235D133F8020C80B210BD6FEA000281
:1013F000D11811F0040F22D1A3F104021346824246
:10140000ECD86FF0020010BD4FF0FF3010BD4FF46C
:101410008040C0F6000047F6FE73C0F6000307E008
:101420004FF40040C0F600004BF6FE73C0F6000318
:1014300000F102001A8891B2A142D7D1D2E7A3F1FC
:1014400004038342DDD91A8891B2A142D4D1C9E7FD
:10145000A2F1040332F8042C91B2A142CCD1C1E72D
:10146000F8B507460E464FF00100FFF77BFF10B3BB
:10147000012829D04FF0AB00F8BD0168B1F1FF3F62
:1014800039D12046314600F081FE082829D104F1E7
:101490000200394600F07AFEF8BD6FEA04014A19ED
:1014A00012F0040F1ED104F1040004468542E4D872
:1014B0004FF08000F8BD47F6FE75C0F600054FF40A
:1014C0008044C0F6000407E04BF6FE75C0F6000548
:1014D0004FF40044C0F600042068B0F1FF3FDCD1B7
:1014E000CFE7F8BD04F10404A542E1D92368B3F1C4
:1014F000FF3FD8D1C5E700F104044268B2F1FF3FD5
:10150000D1D1BEE710B500F0E3FD4FF48043C0F643
:101510000003188883B24FF40042C0F6000211881D
:1015200088B24EF6EE62934234D04FF6FF718B4292
:1015300003D0002B00F070819FE250B94FF00800FB
:101540004FF0020100F042FE082814BF00200120E5
:1015500010BD4EF6EE63984215D14FF008004FF0E3
:10156000020100F033FE082840F08E824FF4004064
:10157000C0F600004FF0000100F008FE082814BF7C
:101580000020012010BDFFF7D3FE082814BF002063
:10159000012010BD002840F01E8144F20600C0F674
:1015A000000001888BB2002B40F0B6820AE04FF0B9
:1015B000000091B2FFF754FF082840F068824FF610
:1015C000FF7401E04FF0000444F20600C0F6000092
:1015D00001888BB2012B10D022B2012A0FD04FF01C
:1015E0000100FFF7EDFE011E09DB4FF0010089B29B
:1015F000FFF736FF082802D04CE24FF0010444F216
:101600000600C0F6000003889AB2022A10D021B268
:1016100002290FD04FF00200FFF7D2FE031E09DBB4
:101620004FF0020099B2FFF71BFF082802D034E206
:101630004FF0020444F20600C0F60000028891B2A6
:10164000032910D023B2032B0FD04FF00300FFF774
:10165000B7FE021E09DB4FF0030091B2FFF700FF57
:10166000082802D01CE24FF0030444F20600C0F642
:10167000000001888BB2042B10D022B2042A0FD0B4
:101680004FF00400FFF79CFE011E09DB4FF0040041
:1016900089B2FFF7E5FE082802D004E24FF0040407
:1016A00044F20600C0F6000003889AB2052A10D062
:1016B00021B205290FD04FF00500FFF781FE031E70
:1016C00009DB4FF0050099B2FFF7CAFE082802D0E7
:1016D000ECE14FF0050444F20600C0F60000028879
:1016E00091B2062910D023B2062B0FD04FF006007E
:1016F000FFF766FE021E09DB4FF0060091B2FFF70E
:10170000AFFE082802D0D4E14FF0060444F20600F0
:10171000C0F6000001888BB2072B10D022B2072A36
:101720000FD04FF00700FFF74BFE011E09DB4FF013
:10173000070089B2FFF794FE082802D0BCE14FF001
:10174000070444F20600C0F6000003889AB2082A93
:1017500010D021B208290FD04FF00800FFF730FE5B
:10176000031E09DB4FF0080099B2FFF779FE082845
:1017700002D0A4E14FF0080444F20600C0F60000D5
:10178000028891B2092910D024B2092C0DD04FF053
:101790000900FFF715FE031E07DB4FF0090099B2A1
:1017A000FFF75EFE082840F08D814FF48040C0F6C0
:1017B00000004FF0000100F0E9FC082840F08581AE
:1017C0004FF010004FF0020100F000FD082814BF98
:1017D0000020012010BD4FF6FF72904215D14FF04E
:1017E00010004FF0020100F0F1FC082840F0708179
:1017F0004FF48040C0F600004FF0000100F0C6FC3E
:10180000082814BF0020012010BDFFF791FD082813
:1018100014BF0020012010BD30B9FFF789FD082852
:1018200014BF0020012010BD4FF6FF7398420AD16B
:101830004FF010004FF0020100F0C8FC082814BF60
:101840000020012010BD48F20600C0F6000002880A
:1018500091B2002940F06A810AE04FF0000099B28D
:10186000FFF7FEFD082840F036814FF6FF7401E0D7
:101870004FF0000448F20600C0F60000028891B262
:10188000012910D023B2012B0FD04FF00100FFF738
:1018900097FD021E09DB4FF0010091B2FFF7E0FD5A
:1018A000082802D01AE14FF0010448F20600C0F601
:1018B000000001888BB2022B10D022B2022A0FD076
:1018C0004FF00200FFF77CFD011E09DB4FF0020024
:1018D00089B2FFF7C5FD082802D002E14FF00204EB
:1018E00048F20600C0F6000003889AB2032A10D01E
:1018F00021B203290FD04FF00300FFF761FD031E53
:1019000009DB4FF0030099B2FFF7AAFD082802D0C7
:10191000EAE04FF0030448F20600C0F60000028837
:1019200091B2042910D023B2042B0FD04FF0040041
:10193000FFF746FD021E09DB4FF0040091B2FFF7EE
:101940008FFD082802D0D2E04FF0040448F20600D0
